{
  "contractName": "TicketSystem",
  "abi": [
    {
      "inputs": [],
      "payable": false,
      "stateMutability": "nonpayable",
      "type": "constructor"
    },
    {
      "constant": true,
      "inputs": [],
      "name": "recipient",
      "outputs": [
        {
          "internalType": "address payable",
          "name": "",
          "type": "address"
        }
      ],
      "payable": false,
      "stateMutability": "view",
      "type": "function"
    },
    {
      "constant": true,
      "inputs": [
        {
          "internalType": "uint256",
          "name": "",
          "type": "uint256"
        }
      ],
      "name": "tickets",
      "outputs": [
        {
          "internalType": "address payable",
          "name": "owner_id",
          "type": "address"
        },
        {
          "internalType": "string",
          "name": "movie_id",
          "type": "string"
        },
        {
          "internalType": "string",
          "name": "ticket_state",
          "type": "string"
        },
        {
          "internalType": "address payable",
          "name": "sell_to",
          "type": "address"
        }
      ],
      "payable": false,
      "stateMutability": "view",
      "type": "function"
    },
    {
      "constant": true,
      "inputs": [],
      "name": "tot_tickets",
      "outputs": [
        {
          "internalType": "uint256",
          "name": "",
          "type": "uint256"
        }
      ],
      "payable": false,
      "stateMutability": "view",
      "type": "function"
    },
    {
      "constant": false,
      "inputs": [
        {
          "internalType": "address payable",
          "name": "owner_id",
          "type": "address"
        },
        {
          "internalType": "uint256",
          "name": "ticket_id",
          "type": "uint256"
        }
      ],
      "name": "redeem_to_pool",
      "outputs": [],
      "payable": false,
      "stateMutability": "nonpayable",
      "type": "function"
    },
    {
      "constant": true,
      "inputs": [],
      "name": "balanceOf",
      "outputs": [
        {
          "internalType": "uint256",
          "name": "",
          "type": "uint256"
        }
      ],
      "payable": false,
      "stateMutability": "view",
      "type": "function"
    },
    {
      "constant": false,
      "inputs": [],
      "name": "buyTicket",
      "outputs": [],
      "payable": true,
      "stateMutability": "payable",
      "type": "function"
    },
    {
      "constant": false,
      "inputs": [],
      "name": "invest",
      "outputs": [],
      "payable": true,
      "stateMutability": "payable",
      "type": "function"
    },
    {
      "constant": false,
      "inputs": [
        {
          "internalType": "address payable",
          "name": "addr",
          "type": "address"
        },
        {
          "internalType": "uint256",
          "name": "ticket_id",
          "type": "uint256"
        }
      ],
      "name": "sell_to",
      "outputs": [],
      "payable": false,
      "stateMutability": "nonpayable",
      "type": "function"
    },
    {
      "constant": false,
      "inputs": [
        {
          "internalType": "uint256",
          "name": "ticket_id",
          "type": "uint256"
        }
      ],
      "name": "acceptTicket",
      "outputs": [],
      "payable": true,
      "stateMutability": "payable",
      "type": "function"
    },
    {
      "constant": false,
      "inputs": [
        {
          "internalType": "uint256",
          "name": "ticket_id",
          "type": "uint256"
        }
      ],
      "name": "withdrawTransfer",
      "outputs": [],
      "payable": false,
      "stateMutability": "nonpayable",
      "type": "function"
    }
  ],
  "bytecode": "0x60806040526028600155670de0b6b3a7640000600255600380546001600160a01b031916905534801561003157600080fd5b5060005b60015481101561012c5760408051608081018252600380546001600160a01b0390811680845284518086018652928352624e2f4160e81b602080850191909152808501938452855180870187526009815268617661696c61626c6560b81b8183015285870152606085019190915260008681526004825294909420835181546001600160a01b031916921691909117815590518051929391926100de9260018501920190610132565b50604082015180516100fa916002840191602090910190610132565b5060609190910151600390910180546001600160a01b0319166001600160a01b03909216919091179055600101610035565b506101cd565b828054600181600116156101000203166002900490600052602060002090601f016020900481019282601f1061017357805160ff19168380011785556101a0565b828001600101855582156101a0579182015b828111156101a0578251825591602001919060010190610185565b506101ac9291506101b0565b5090565b6101ca91905b808211156101ac57600081556001016101b6565b90565b610d3580620001dd6000396000f3fe6080604052600436106100915760003560e01c8063773112f911610059578063773112f91461025c578063b403078414610295578063b9d47deb146102bf578063e8b5e51f146102f8578063edca914c1461030057610091565b806318293ec61461009657806350b44712146100b55780635217c15a146101ef57806366d003ac14610216578063722713f714610247575b600080fd5b6100b3600480360360208110156100ac57600080fd5b5035610308565b005b3480156100c157600080fd5b506100df600480360360208110156100d857600080fd5b50356104a6565b60405180856001600160a01b03166001600160a01b031681526020018060200180602001846001600160a01b03166001600160a01b03168152602001838103835286818151815260200191508051906020019080838360005b83811015610150578181015183820152602001610138565b50505050905090810190601f16801561017d5780820380516001836020036101000a031916815260200191505b50838103825285518152855160209182019187019080838360005b838110156101b0578181015183820152602001610198565b50505050905090810190601f1680156101dd5780820380516001836020036101000a031916815260200191505b50965050505050505060405180910390f35b3480156101fb57600080fd5b506102046105fb565b60408051918252519081900360200190f35b34801561022257600080fd5b5061022b610601565b604080516001600160a01b039092168252519081900360200190f35b34801561025357600080fd5b50610204610610565b34801561026857600080fd5b506100b36004803603604081101561027f57600080fd5b506001600160a01b038135169060200135610615565b3480156102a157600080fd5b506100b3600480360360208110156102b857600080fd5b5035610762565b3480156102cb57600080fd5b506100b3600480360360408110156102e257600080fd5b506001600160a01b0381351690602001356107a6565b6100b36108e8565b6100b36108ea565b6002543410610475576000818152600460205260409020600301546001600160a01b0316331415610442576002546040513391340380156108fc02916000818181858888f19350505050158015610363573d6000803e3d6000fd5b506000818152600460205260408082205460025491516001600160a01b0390911692839280156108fc02929091818181858888f193505050501580156103ad573d6000803e3d6000fd5b50600082815260046020818152604080842080546001600160a01b031916331781558151808301909252600b82526a756e617661696c61626c6560a81b8284019081529487905292909152516104099260029092019190610c68565b505060038054600083815260046020526040902090910180546001600160a01b0319166001600160a01b03909216919091179055610470565b60405133903480156108fc02916000818181858888f1935050505015801561046e573d6000803e3d6000fd5b505b6104a3565b60405133903480156108fc02916000818181858888f193505050501580156104a1573d6000803e3d6000fd5b505b50565b6004602090815260009182526040918290208054600180830180548651600261010094831615949094026000190190911692909204601f81018690048602830186019096528582526001600160a01b039092169492939092908301828280156105505780601f1061052557610100808354040283529160200191610550565b820191906000526020600020905b81548152906001019060200180831161053357829003601f168201915b50505060028085018054604080516020601f60001961010060018716150201909416959095049283018590048502810185019091528181529596959450909250908301828280156105e25780601f106105b7576101008083540402835291602001916105e2565b820191906000526020600020905b8154815290600101906020018083116105c557829003601f168201915b505050600390930154919250506001600160a01b031684565b60015481565b6000546001600160a01b031681565b475b90565b6000818152600460205260409020546001600160a01b0383811691161480156106e457506040518060400160405280600b81526020016a756e617661696c61626c6560a81b815250805190602001206004600083815260200190815260200160002060020160405180828054600181600116156101000203166002900480156106d55780601f106106b35761010080835404028352918201916106d5565b820191906000526020600020905b8154815290600101906020018083116106c1575b50509150506040518091039020145b156104a1576040805180820182526009815268617661696c61626c6560b81b60208083019182526000858152600490915292909220905161072b9260029092019190610c68565b5060038054600083815260046020526040902090910180546001600160a01b0319166001600160a01b039092169190911790555050565b604080518082018252600b81526a756e617661696c61626c6560a81b6020808301918252600085815260049091529290922090516104a19260029092019190610c68565b6000818152600460205260409020546001600160a01b03163314801561087257506040518060400160405280600b81526020016a756e617661696c61626c6560a81b815250805190602001206004600083815260200190815260200160002060020160405180828054600181600116156101000203166002900480156108635780601f10610841576101008083540402835291820191610863565b820191906000526020600020905b81548152906001019060200180831161084f575b50509150506040518091039020145b156104a15760008181526004602081815260408084206003810180546001600160a01b0319166001600160a01b0389161790558151808301909252600f82526e3ab82fb337b92fba3930b739b332b960891b8284019081529486905292909152516108e39260029092019190610c68565b505050565b565b6002543410610c3c576000805b600154811015610c025760405180604001604052806009815260200168617661696c61626c6560b81b8152508051906020012060046000838152602001908152602001600020600201604051808280546001816001161561010002031660029004801561099b5780601f1061097957610100808354040283529182019161099b565b820191906000526020600020905b815481529060010190602001808311610987575b505091505060405180910390201480156109d157506003546000828152600460205260409020546001600160a01b039081169116145b15610a6c57600081815260046020818152604080842080546001600160a01b031916331781558151808301909252600b82526a756e617661696c61626c6560a81b828401908152948690529290915251610a319260029092019190610c68565b506002546040513391340380156108fc02916000818181858888f19350505050158015610a62573d6000803e3d6000fd5b5060019150610c02565b60405180604001604052806009815260200168617661696c61626c6560b81b81525080519060200120600460008381526020019081526020016000206002016040518082805460018160011615610100020316600290048015610b065780601f10610ae4576101008083540402835291820191610b06565b820191906000526020600020905b815481529060010190602001808311610af2575b505091505060405180910390201415610bfa576000818152600460205260408082205460025491516001600160a01b0390911692839280156108fc02929091818181858888f19350505050158015610b62573d6000803e3d6000fd5b50600082815260046020818152604080842080546001600160a01b031916331781558151808301909252600b82526a756e617661696c61626c6560a81b828401908152948790529290915251610bbe9260029092019190610c68565b506002546040513391340380156108fc02916000818181858888f19350505050158015610bef573d6000803e3d6000fd5b506001925050610c02565b6001016108f7565b5080610c365760405133903480156108fc02916000818181858888f19350505050158015610c34573d6000803e3d6000fd5b505b506108e8565b60405133903480156108fc02916000818181858888f193505050501580156104a3573d6000803e3d6000fd5b828054600181600116156101000203166002900490600052602060002090601f016020900481019282601f10610ca957805160ff1916838001178555610cd6565b82800160010185558215610cd6579182015b82811115610cd6578251825591602001919060010190610cbb565b50610ce2929150610ce6565b5090565b61061291905b80821115610ce25760008155600101610cec56fea265627a7a723158200fd29d341336b8eefd5318010ff98f030779721b3e0455c8c764c51aea4a848164736f6c63430005100032",
  "source": "pragma solidity ^0.5.0;\ncontract TicketSystem{\n  address payable public recipient; \n  uint public tot_tickets = 40;\n  uint tick_price = 1 ether;\n  address payable null_addr = address(0);\n  struct Ticket{\n    address payable owner_id;\n    string movie_id;\n    string ticket_state;\n    address payable sell_to;\n\n  } \n  mapping(uint => Ticket) public tickets;\n  constructor() public {\n      \n  \n        for (uint i = 0; i < tot_tickets; i++)\n        {\n            tickets[i] = Ticket(null_addr,\"N/A\",\"available\",null_addr);\n        }\n    }\n function redeem_to_pool(address payable owner_id, uint ticket_id) external \n {\n    //buyer_id.transfer(1 ether);\n    \n      if(tickets[ticket_id].owner_id == owner_id && keccak256(bytes(tickets[ticket_id].ticket_state)) == keccak256(bytes(\"unavailable\")) )\n      {\n        \n        tickets[ticket_id].ticket_state = \"available\";\n        tickets[ticket_id].sell_to = null_addr;\n      }\n }\n function balanceOf() external view returns (uint){\n     return address(this).balance;\n }\n function buyTicket() public payable {\n    if(msg.value>=tick_price)\n    {\n      bool found = false;\n      for(uint i = 0; i < tot_tickets; i++ )\n      {\n          if(keccak256(bytes(tickets[i].ticket_state)) == keccak256(bytes(\"available\")) && tickets[i].owner_id == null_addr)\n          {\n            tickets[i].owner_id = msg.sender;\n            tickets[i].ticket_state = \"unavailable\";\n            msg.sender.transfer(msg.value - tick_price);\n            found = true;\n            break;\n          }\n          else if(keccak256(bytes(tickets[i].ticket_state)) == keccak256(bytes(\"available\")))\n          {\n            address payable owner_id = tickets[i].owner_id;\n            owner_id.transfer(tick_price);\n            tickets[i].owner_id = msg.sender;\n            tickets[i].ticket_state = \"unavailable\";\n            msg.sender.transfer(msg.value - tick_price);\n            found = true;\n            break;\n          }\n      }\n      if(found == false)\n      {\n        msg.sender.transfer(msg.value);\n      }\n\n    }\n    else\n    {\n      msg.sender.transfer(msg.value);\n    }\n }\n  function uint2str(uint _i) internal pure returns (string memory _uintAsString) {\n    if (_i == 0) {\n        return \"0\";\n    }\n    uint j = _i;\n    uint len;\n    while (j != 0) {\n        len++;\n        j /= 10;\n    }\n    bytes memory bstr = new bytes(len);\n    uint k = len - 1;\n    while (_i != 0) {\n        bstr[k--] = byte(uint8(48 + _i % 10));\n        _i /= 10;\n    }\n    return string(bstr);\n}\n function invest() external payable{\n\n }\n\n// Sell_to -> A ticket owner can sell his ticket to a some guy with a particular address\n// Claim ticket -> If someone wants to sell you his ticket, you can claim it. This function completes two transactions.\n function sell_to(address payable addr, uint ticket_id) public \n {\n      if(tickets[ticket_id].owner_id == msg.sender && keccak256(bytes(tickets[ticket_id].ticket_state)) == keccak256(bytes(\"unavailable\")))\n      {\n        tickets[ticket_id].sell_to = addr;\n        tickets[ticket_id].ticket_state = \"up_for_transfer\";\n      }\n }\n\nfunction acceptTicket(uint ticket_id) external payable\n{\n    if(msg.value>=tick_price)\n    {\n      if(tickets[ticket_id].sell_to == msg.sender)\n      {\n        msg.sender.transfer(msg.value-tick_price);\n        address payable addr = tickets[ticket_id].owner_id;\n        addr.transfer(tick_price);\n        tickets[ticket_id].owner_id = msg.sender;\n        tickets[ticket_id].ticket_state = \"unavailable\";\n        tickets[ticket_id].sell_to = null_addr;\n      }\n      else\n      {\n        msg.sender.transfer(msg.value);\n      }\n    }\n    else\n    {\n        msg.sender.transfer(msg.value);\n    }\n}\nfunction withdrawTransfer(uint ticket_id) public\n{\n    tickets[ticket_id].ticket_state = \"unavailable\";\n}\n  \n \n\n}",
  "sourcePath": "D:/Blockchain Project/contracts/TicketSystem.sol",
  "compiler": {
    "name": "solc",
    "version": "0.5.16+commit.9c3226ce.Emscripten.clang"
  },
  "schemaVersion": "3.3.2",
  "updatedAt": "2020-12-17T17:25:57.443Z",
  "networkType": "ethereum",
  "devdoc": {
    "methods": {}
  },
  "userdoc": {
    "methods": {}
  }
}