{
  "contractName": "TicketSystem",
  "abi": [
    {
      "inputs": [],
      "payable": false,
      "stateMutability": "nonpayable",
      "type": "constructor"
    },
    {
      "constant": true,
      "inputs": [],
      "name": "recipient",
      "outputs": [
        {
          "internalType": "address payable",
          "name": "",
          "type": "address"
        }
      ],
      "payable": false,
      "stateMutability": "view",
      "type": "function"
    },
    {
      "constant": true,
      "inputs": [
        {
          "internalType": "uint256",
          "name": "",
          "type": "uint256"
        }
      ],
      "name": "tickets",
      "outputs": [
        {
          "internalType": "address payable",
          "name": "owner_id",
          "type": "address"
        },
        {
          "internalType": "string",
          "name": "movie_id",
          "type": "string"
        },
        {
          "internalType": "string",
          "name": "ticket_state",
          "type": "string"
        },
        {
          "internalType": "address payable",
          "name": "sell_to",
          "type": "address"
        }
      ],
      "payable": false,
      "stateMutability": "view",
      "type": "function"
    },
    {
      "constant": true,
      "inputs": [],
      "name": "tot_tickets",
      "outputs": [
        {
          "internalType": "uint256",
          "name": "",
          "type": "uint256"
        }
      ],
      "payable": false,
      "stateMutability": "view",
      "type": "function"
    },
    {
      "constant": false,
      "inputs": [
        {
          "internalType": "address payable",
          "name": "owner_id",
          "type": "address"
        },
        {
          "internalType": "uint256",
          "name": "ticket_id",
          "type": "uint256"
        }
      ],
      "name": "redeem_to_pool",
      "outputs": [],
      "payable": false,
      "stateMutability": "nonpayable",
      "type": "function"
    },
    {
      "constant": true,
      "inputs": [],
      "name": "balanceOf",
      "outputs": [
        {
          "internalType": "uint256",
          "name": "",
          "type": "uint256"
        }
      ],
      "payable": false,
      "stateMutability": "view",
      "type": "function"
    },
    {
      "constant": false,
      "inputs": [],
      "name": "buyTicket",
      "outputs": [],
      "payable": true,
      "stateMutability": "payable",
      "type": "function"
    },
    {
      "constant": false,
      "inputs": [
        {
          "internalType": "address payable",
          "name": "addr",
          "type": "address"
        },
        {
          "internalType": "uint256",
          "name": "ticket_id",
          "type": "uint256"
        }
      ],
      "name": "sell_to",
      "outputs": [],
      "payable": false,
      "stateMutability": "nonpayable",
      "type": "function"
    },
    {
      "constant": false,
      "inputs": [
        {
          "internalType": "uint256",
          "name": "ticket_id",
          "type": "uint256"
        }
      ],
      "name": "acceptTicket",
      "outputs": [],
      "payable": true,
      "stateMutability": "payable",
      "type": "function"
    },
    {
      "constant": false,
      "inputs": [
        {
          "internalType": "uint256",
          "name": "ticket_id",
          "type": "uint256"
        }
      ],
      "name": "withdrawTransfer",
      "outputs": [],
      "payable": false,
      "stateMutability": "nonpayable",
      "type": "function"
    }
  ],
  "bytecode": "0x60806040526028600155670de0b6b3a7640000600255600380546001600160a01b031916905534801561003157600080fd5b5060005b60015481101561012c5760408051608081018252600380546001600160a01b0390811680845284518086018652928352624e2f4160e81b602080850191909152808501938452855180870187526009815268617661696c61626c6560b81b8183015285870152606085019190915260008681526004825294909420835181546001600160a01b031916921691909117815590518051929391926100de9260018501920190610132565b50604082015180516100fa916002840191602090910190610132565b5060609190910151600390910180546001600160a01b0319166001600160a01b03909216919091179055600101610035565b506101cd565b828054600181600116156101000203166002900490600052602060002090601f016020900481019282601f1061017357805160ff19168380011785556101a0565b828001600101855582156101a0579182015b828111156101a0578251825591602001919060010190610185565b506101ac9291506101b0565b5090565b6101ca91905b808211156101ac57600081556001016101b6565b90565b610d5680620001dd6000396000f3fe6080604052600436106100865760003560e01c8063722713f711610059578063722713f71461023c578063773112f914610251578063b40307841461028a578063b9d47deb146102b4578063edca914c146102ed57610086565b806318293ec61461008b57806350b44712146100aa5780635217c15a146101e457806366d003ac1461020b575b600080fd5b6100a8600480360360208110156100a157600080fd5b50356102f5565b005b3480156100b657600080fd5b506100d4600480360360208110156100cd57600080fd5b5035610493565b60405180856001600160a01b03166001600160a01b031681526020018060200180602001846001600160a01b03166001600160a01b03168152602001838103835286818151815260200191508051906020019080838360005b8381101561014557818101518382015260200161012d565b50505050905090810190601f1680156101725780820380516001836020036101000a031916815260200191505b50838103825285518152855160209182019187019080838360005b838110156101a557818101518382015260200161018d565b50505050905090810190601f1680156101d25780820380516001836020036101000a031916815260200191505b50965050505050505060405180910390f35b3480156101f057600080fd5b506101f96105e8565b60408051918252519081900360200190f35b34801561021757600080fd5b506102206105ee565b604080516001600160a01b039092168252519081900360200190f35b34801561024857600080fd5b506101f96105fd565b34801561025d57600080fd5b506100a86004803603604081101561027457600080fd5b506001600160a01b038135169060200135610602565b34801561029657600080fd5b506100a8600480360360208110156102ad57600080fd5b503561074f565b3480156102c057600080fd5b506100a8600480360360408110156102d757600080fd5b506001600160a01b0381351690602001356107c7565b6100a8610909565b6002543410610462576000818152600460205260409020600301546001600160a01b031633141561042f576002546040513391340380156108fc02916000818181858888f19350505050158015610350573d6000803e3d6000fd5b506000818152600460205260408082205460025491516001600160a01b0390911692839280156108fc02929091818181858888f1935050505015801561039a573d6000803e3d6000fd5b50600082815260046020818152604080842080546001600160a01b031916331781558151808301909252600b82526a756e617661696c61626c6560a81b8284019081529487905292909152516103f69260029092019190610c89565b505060038054600083815260046020526040902090910180546001600160a01b0319166001600160a01b0390921691909117905561045d565b60405133903480156108fc02916000818181858888f1935050505015801561045b573d6000803e3d6000fd5b505b610490565b60405133903480156108fc02916000818181858888f1935050505015801561048e573d6000803e3d6000fd5b505b50565b6004602090815260009182526040918290208054600180830180548651600261010094831615949094026000190190911692909204601f81018690048602830186019096528582526001600160a01b0390921694929390929083018282801561053d5780601f106105125761010080835404028352916020019161053d565b820191906000526020600020905b81548152906001019060200180831161052057829003601f168201915b50505060028085018054604080516020601f60001961010060018716150201909416959095049283018590048502810185019091528181529596959450909250908301828280156105cf5780601f106105a4576101008083540402835291602001916105cf565b820191906000526020600020905b8154815290600101906020018083116105b257829003601f168201915b505050600390930154919250506001600160a01b031684565b60015481565b6000546001600160a01b031681565b475b90565b6000818152600460205260409020546001600160a01b0383811691161480156106d157506040518060400160405280600b81526020016a756e617661696c61626c6560a81b815250805190602001206004600083815260200190815260200160002060020160405180828054600181600116156101000203166002900480156106c25780601f106106a05761010080835404028352918201916106c2565b820191906000526020600020905b8154815290600101906020018083116106ae575b50509150506040518091039020145b1561048e576040805180820182526009815268617661696c61626c6560b81b6020808301918252600085815260049091529290922090516107189260029092019190610c89565b5060038054600083815260046020526040902090910180546001600160a01b0319166001600160a01b039092169190911790555050565b604080518082018252600b81526a756e617661696c61626c6560a81b6020808301918252600085815260049091529290922090516107939260029092019190610c89565b50600380546000928352600460205260409092200180546001600160a01b0319166001600160a01b03909216919091179055565b6000818152600460205260409020546001600160a01b03163314801561089357506040518060400160405280600b81526020016a756e617661696c61626c6560a81b815250805190602001206004600083815260200190815260200160002060020160405180828054600181600116156101000203166002900480156108845780601f10610862576101008083540402835291820191610884565b820191906000526020600020905b815481529060010190602001808311610870575b50509150506040518091039020145b1561048e5760008181526004602081815260408084206003810180546001600160a01b0319166001600160a01b0389161790558151808301909252600f82526e3ab82fb337b92fba3930b739b332b960891b8284019081529486905292909152516109049260029092019190610c89565b505050565b6002543410610c5b576000805b600154811015610c215760405180604001604052806009815260200168617661696c61626c6560b81b815250805190602001206004600083815260200190815260200160002060020160405180828054600181600116156101000203166002900480156109ba5780601f106109985761010080835404028352918201916109ba565b820191906000526020600020905b8154815290600101906020018083116109a6575b505091505060405180910390201480156109f057506003546000828152600460205260409020546001600160a01b039081169116145b15610a8b57600081815260046020818152604080842080546001600160a01b031916331781558151808301909252600b82526a756e617661696c61626c6560a81b828401908152948690529290915251610a509260029092019190610c89565b506002546040513391340380156108fc02916000818181858888f19350505050158015610a81573d6000803e3d6000fd5b5060019150610c21565b60405180604001604052806009815260200168617661696c61626c6560b81b81525080519060200120600460008381526020019081526020016000206002016040518082805460018160011615610100020316600290048015610b255780601f10610b03576101008083540402835291820191610b25565b820191906000526020600020905b815481529060010190602001808311610b11575b505091505060405180910390201415610c19576000818152600460205260408082205460025491516001600160a01b0390911692839280156108fc02929091818181858888f19350505050158015610b81573d6000803e3d6000fd5b50600082815260046020818152604080842080546001600160a01b031916331781558151808301909252600b82526a756e617661696c61626c6560a81b828401908152948790529290915251610bdd9260029092019190610c89565b506002546040513391340380156108fc02916000818181858888f19350505050158015610c0e573d6000803e3d6000fd5b506001925050610c21565b600101610916565b5080610c555760405133903480156108fc02916000818181858888f19350505050158015610c53573d6000803e3d6000fd5b505b50610c87565b60405133903480156108fc02916000818181858888f19350505050158015610490573d6000803e3d6000fd5b565b828054600181600116156101000203166002900490600052602060002090601f016020900481019282601f10610cca57805160ff1916838001178555610cf7565b82800160010185558215610cf7579182015b82811115610cf7578251825591602001919060010190610cdc565b50610d03929150610d07565b5090565b6105ff91905b80821115610d035760008155600101610d0d56fea265627a7a723158209d1febcfa743c4d54f6ea611094922000d891f762368418886eb51606b9b2e3664736f6c63430005100032",
  "source": "pragma solidity ^0.5.0;\n\ncontract TicketSystem {\n    address payable public recipient;\n    uint256 public tot_tickets = 40; //configurable\n    uint256 tick_price = 1 ether;\n    address payable null_addr = address(0);\n    struct Ticket {\n        address payable owner_id;\n        string movie_id;\n        string ticket_state;\n        address payable sell_to;\n    }\n    mapping(uint256 => Ticket) public tickets;\n\n    constructor() public {\n        for (uint256 i = 0; i < tot_tickets; i++) {\n            tickets[i] = Ticket(null_addr, \"N/A\", \"available\", null_addr);\n        }\n    } // movie ID can be added.\n\n    // Sell ticket to public\n    function redeem_to_pool(address payable owner_id, uint256 ticket_id) external\n    {\n        //buyer_id.transfer(1 ether);\n        if (tickets[ticket_id].owner_id == owner_id &&\n            keccak256(bytes(tickets[ticket_id].ticket_state)) == keccak256(bytes(\"unavailable\"))) \n        {\n            tickets[ticket_id].ticket_state = \"available\";\n            tickets[ticket_id].sell_to = null_addr;\n        }\n    }\n\n    function balanceOf() external view returns (uint256) {\n        return address(this).balance;\n    }\n\n    // buy publicly avaiable ticket\n    function buyTicket() public payable {\n        if (msg.value >= tick_price) {\n            bool found = false;\n            for (uint256 i = 0; i < tot_tickets; i++) {\n                if (keccak256(bytes(tickets[i].ticket_state)) == keccak256(bytes(\"available\")) &&\n                    tickets[i].owner_id == null_addr) \n                {\n                    tickets[i].owner_id = msg.sender;\n                    tickets[i].ticket_state = \"unavailable\";\n                    msg.sender.transfer(msg.value - tick_price);\n                    found = true;\n                    break;\n                } \n                else if (keccak256(bytes(tickets[i].ticket_state)) == keccak256(bytes(\"available\"))) \n                {\n                    address payable owner_id = tickets[i].owner_id;\n                    owner_id.transfer(tick_price);\n                    tickets[i].owner_id = msg.sender;\n                    tickets[i].ticket_state = \"unavailable\";\n                    msg.sender.transfer(msg.value - tick_price);\n                    found = true;\n                    break;\n                }\n            }\n            // no more ticket available to public\n            if (found == false) {\n                msg.sender.transfer(msg.value);\n            }\n        }\n        // less amount paid \n        else {\n            msg.sender.transfer(msg.value);\n        }\n    }\n\n    function uint2str(uint256 _i) internal pure returns (string memory _uintAsString)\n    {\n        if (_i == 0) {\n            return \"0\";\n        }\n        uint256 j = _i;\n        uint256 len;\n        while (j != 0) {\n            len++;\n            j /= 10;\n        }\n        bytes memory bstr = new bytes(len);\n        uint256 k = len - 1;\n        while (_i != 0) {\n            bstr[k--] = bytes1(uint8(48 + (_i % 10)));\n            _i /= 10;\n        }\n        return string(bstr);\n    }\n\n    // function invest() external payable {}\n\n    // Sell_to -> A ticket owner can sell his ticket to a some guy with a particular address\n    function sell_to(address payable addr, uint256 ticket_id) public {\n        if (tickets[ticket_id].owner_id == msg.sender &&\n            keccak256(bytes(tickets[ticket_id].ticket_state)) == keccak256(bytes(\"unavailable\"))) \n        {\n            tickets[ticket_id].sell_to = addr;\n            tickets[ticket_id].ticket_state = \"up_for_transfer\";\n        }\n    }\n\n    // Claim ticket -> If someone wants to sell you his ticket, you can claim it. This function completes two transactions.\n    function acceptTicket(uint256 ticket_id) external payable {\n        if (msg.value >= tick_price) {\n            if (tickets[ticket_id].sell_to == msg.sender) {\n                msg.sender.transfer(msg.value - tick_price);\n                address payable addr = tickets[ticket_id].owner_id;\n                addr.transfer(tick_price);\n                tickets[ticket_id].owner_id = msg.sender;\n                tickets[ticket_id].ticket_state = \"unavailable\";\n                tickets[ticket_id].sell_to = null_addr;\n            } else {\n                msg.sender.transfer(msg.value);\n            }\n        } else {\n            msg.sender.transfer(msg.value);\n        }\n    }\n\n    function withdrawTransfer(uint256 ticket_id) public {\n        tickets[ticket_id].ticket_state = \"unavailable\";\n        tickets[ticket_id].sell_to = null_addr;\n    }\n}\n",
  "sourcePath": "D:/Blockchain Project/contracts/TicketSystem.sol",
  "compiler": {
    "name": "solc",
    "version": "0.5.16+commit.9c3226ce.Emscripten.clang"
  },
  "schemaVersion": "3.3.2",
  "updatedAt": "2020-12-18T17:26:59.184Z",
  "networkType": "ethereum",
  "devdoc": {
    "methods": {}
  },
  "userdoc": {
    "methods": {}
  }
}